:020000040000fa
:080000000002040000000000f2
:020000040000fa
:040008006804000088
:020000040000fa
:04000c0000040000ec
:020000040000fa
:040010001c040000cc
:020000040000fa
:04001400a004000044
:020000040000fa
:04001800840400005c
:020000040000fa
:04001c00c404000018
:020000040000fa
:0400200038040000a0
:020000040000fa
:04002400c404000010
:020000040000fa
:04002800c40400000c
:020000040000fa
:04002c00c803000005
:020000040000fa
:04003000c404000004
:020000040000fa
:04003400c404000000
:020000040000fa
:04003800c4040000fc
:020000040000fa
:04003c00c4040000f8
:020000040000fa
:04004000c4040000f4
:020000040000fa
:04004400c4040000f0
:020000040000fa
:04004800c4040000ec
:020000040000fa
:04004c00c4040000e8
:020000040000fa
:04005000c4040000e4
:020000040000fa
:04005400c4040000e0
:020000040000fa
:04005800c4040000dc
:020000040000fa
:04005c00c4040000d8
:020000040000fa
:04006000c4040000d4
:020000040000fa
:04006400a0030000f5
:020000040000fa
:04006800c4040000cc
:020000040000fa
:04006c00c4040000c8
:020000040000fa
:04007000c4040000c4
:020000040000fa
:04007400c4040000c0
:020000040000fa
:04007800c4040000bc
:020000040000fa
:04007c00c4040000b8
:020000040000fa
:04008000c4040000b4
:020000040000fa
:04008400c4040000b0
:020000040000fa
:04008800c4040000ac
:020000040000fa
:04008c00c4040000a8
:020000040000fa
:04009000c4040000a4
:020000040000fa
:04009400c4040000a0
:020000040000fa
:04009800c40400009c
:020000040000fa
:04009c00c404000098
:020000040000fa
:0400a000c404000094
:020000040000fa
:0400a400c404000090
:020000040000fa
:0400a800c40400008c
:020000040000fa
:0400ac00c404000088
:020000040000fa
:0400b000c404000084
:020000040000fa
:0400b400c404000080
:020000040000fa
:0400b800c40400007c
:020000040000fa
:0400bc00c404000078
:020000040000fa
:0400c000c404000074
:020000040000fa
:0400c400c404000070
:020000040000fa
:0400c800c40400006c
:020000040000fa
:0400cc00c404000068
:020000040000fa
:0400d000c404000064
:020000040000fa
:0400d400c404000060
:020000040000fa
:0400d800c40400005c
:020000040000fa
:0400dc00e00300003d
:020000040000fa
:0400e000c404000054
:020000040000fa
:0400e400c404000050
:020000040000fa
:0400e800c40400004c
:020000040000fa
:0400ec00c404000048
:020000040000fa
:0400f000c404000044
:020000040000fa
:0400f400c404000040
:020000040000fa
:0400f800c40400003c
:020000040000fa
:0400fc00c404000038
:020000040000fa
:04010000c404000033
:020000040000fa
:04010400c40400002f
:020000040000fa
:04010800c40400002b
:020000040000fa
:04010c00c404000027
:020000040000fa
:04011000c404000023
:020000040000fa
:04011400c40400001f
:020000040000fa
:04011800c40400001b
:020000040000fa
:04011c00c404000017
:020000040000fa
:04012000c404000013
:020000040000fa
:04012400c40400000f
:020000040000fa
:04012800c40400000b
:020000040000fa
:04012c00c404000007
:020000040000fa
:04013000c404000003
:020000040000fa
:04013400c4040000ff
:020000040000fa
:04013800c4040000fb
:020000040000fa
:04013c00c4040000f7
:020000040000fa
:04014000c4040000f3
:020000040000fa
:04014400c4040000ef
:020000040000fa
:04014800c4040000eb
:020000040000fa
:04014c00c4040000e7
:020000040000fa
:04015000c4040000e3
:020000040000fa
:04015400c4040000df
:020000040000fa
:04015800c4040000db
:020000040000fa
:04015c00c4040000d7
:020000040000fa
:04016000c4040000d3
:020000040000fa
:04016400c4040000cf
:020000040000fa
:04016800c4040000cb
:020000040000fa
:04016c00c4040000c7
:020000040000fa
:04017000c4040000c3
:020000040000fa
:04017400c4040000bf
:020000040000fa
:04017800c4040000bb
:020000040000fa
:04017c00c4040000b7
:020000040000fa
:04018000c4040000b3
:020000040000fa
:04018400c4040000af
:020000040000fa
:04018800c4040000ab
:020000040000fa
:04018c00c4040000a7
:020000040000fa
:04019000c4040000a3
:020000040000fa
:04019400c40400009f
:020000040000fa
:04019800c40400009b
:020000040000fa
:04019c00c404000097
:020000040000fa
:0401a000c404000093
:020000040000fa
:0401a400c40400008f
:020000040000fa
:0401a800c40400008b
:020000040000fa
:0401ac00c404000087
:020000040000fa
:0401b000c404000083
:020000040000fa
:0401b400c40400007f
:020000040000fa
:0401b800c40400007b
:020000040000fa
:0401bc00c404000077
:020000040000fa
:0401c000c404000073
:020000040000fa
:0401c400c40400006f
:020000040000fa
:0401c800c40400006b
:020000040000fa
:0401cc00c404000067
:020000040000fa
:0401d000c404000063
:020000040000fa
:0401d400c40400005f
:020000040000fa
:0401d800c40400005b
:020000040000fa
:0401dc00c404000057
:020000040000fa
:0401e000c404000053
:020000040000fa
:0401e400c40400004f
:020000040000fa
:0401e800c40400004b
:020000040000fa
:0401ec00c404000047
:020000040000fa
:0401f000c404000043
:020000040000fa
:0401f400c40400003f
:020000040000fa
:0401f800c40400003b
:020000040000fa
:0401fc00c404000037
:020000040000fa
:04020000c404000032
:020000040000fa
:04020400c40400002e
:020000040000fa
:04020800c40400002a
:020000040000fa
:04020c00c404000026
:020000040000fa
:04021000c404000022
:020000040000fa
:04021400c40400001e
:020000040000fa
:04021800c40400001a
:020000040000fa
:04021c00c404000016
:020000040000fa
:04022000c404000012
:020000040000fa
:04022400c40400000e
:020000040000fa
:04022800c40400000a
:020000040000fa
:04022c00c404000006
:020000040000fa
:04023000c404000002
:020000040000fa
:04023400c4040000fe
:020000040000fa
:04023800c4040000fa
:020000040000fa
:04023c00c4040000f6
:020000040000fa
:04024000c4040000f2
:020000040000fa
:04024400c4040000ee
:020000040000fa
:04024800c4040000ea
:020000040000fa
:04024c00c4040000e6
:020000040000fa
:04025000c4040000e2
:020000040000fa
:04025400c4040000de
:020000040000fa
:04025800c4040000da
:020000040000fa
:04025c00c4040000d6
:020000040000fa
:04026000c4040000d2
:020000040000fa
:04026400c4040000ce
:020000040000fa
:04026800c4040000ca
:020000040000fa
:04026c00c4040000c6
:020000040000fa
:04027000c4040000c2
:020000040000fa
:04027400c4040000be
:020000040000fa
:04027800c4040000ba
:020000040000fa
:04027c00c4040000b6
:020000040000fa
:04028000c4040000b2
:020000040000fa
:04028400c4040000ae
:020000040000fa
:04028800c4040000aa
:020000040000fa
:04028c00c4040000a6
:020000040000fa
:04029000c4040000a2
:020000040000fa
:04029400c40400009e
:020000040000fa
:04029800c40400009a
:020000040000fa
:04029c00c404000096
:020000040000fa
:0402a000c404000092
:020000040000fa
:0402a400c40400008e
:020000040000fa
:0402a800c40400008a
:020000040000fa
:0402ac00c404000086
:020000040000fa
:0402b000c404000082
:020000040000fa
:0402b400c40400007e
:020000040000fa
:0402b800c40400007a
:020000040000fa
:0402bc00c404000076
:020000040000fa
:0402c000c404000072
:020000040000fa
:0402c400c40400006e
:020000040000fa
:0402c800c40400006a
:020000040000fa
:0402cc00c404000066
:020000040000fa
:0402d000c404000062
:020000040000fa
:0402d400c40400005e
:020000040000fa
:0402d800c40400005a
:020000040000fa
:0402dc00c404000056
:020000040000fa
:0402e000c404000052
:020000040000fa
:0402e400c40400004e
:020000040000fa
:0402e800c40400004a
:020000040000fa
:0402ec00c404000046
:020000040000fa
:0402f000c404000042
:020000040000fa
:0402f400c40400003e
:020000040000fa
:0402f800c40400003a
:020000040000fa
:0402fc00c404000036
:020000040000fa
:04030000c404000031
:020000040000fa
:04030400c40400002d
:020000040000fa
:04030800c404000029
:020000040000fa
:04030c00c404000025
:020000040000fa
:04031000c404000021
:020000040000fa
:04031400c40400001d
:020000040000fa
:04031800c404000019
:020000040000fa
:04031c00c404000015
:020000040000fa
:04032000c404000011
:020000040000fa
:04032400c40400000d
:020000040000fa
:10040000af0521000eff22000e0188000000000051
:10041000000020000000e000020032000001200087
:100420002002880018000700590107000000e000c2
:1004300003003a0000fc2000010020000200370009
:100440000000200001002000810f70000200320037
:100450000001eb0012000700100007004d0107002b
:10046000000020000000e000020032000000020056
:10047000000000008e0f020000000000560107007f
:100480000040da000000fe00001520000000e0003f
:1004900002003200002020009001880000000600c9
:1004a000a1028800800478000000eb0020003700e3
:1004b0000a054100e284440054a0b4009905ba0042
:1004c000e284440054a0b4009906ba00e2844400d7
:1004d00054a0b4000006eb00476fde00fd07b20039
:1004e000ae018800636ce10003003a000ad8010005
:1004f0000000eb000e003700606ce10008003a00dd
:10050000004deb000a05e800020039003420ec0041
:100510000af0a0008b05e900f9ff3e000400370057
:100520006168e100010032000086eb000b0007006b
:1005300019c7ba001905ba000e04e00003003a001a
:100540000a00e000daff3a0000000600fe07b200f1
:10055000ae0288008a047800f5ff37000cd0a300b3
:10056000e20f4d001c003b0089027800354dba00b7
:100570000a05e800020039003420ec000af0a0006f
:100580008b05e9000f003200254dba000a05e8008e
:10059000020039003420ec000af0a0008b05e900cd
:1005a000080032000c00e0000600320015cdba0051
:1005b0000a05e800020039003420ec000af0a0002f
:1005c0008b05e9008984e80054a0b4000b00e0002a
:1005d000e2ff3a00000006009902ba00055d7800cb
:1005e0008b05e900f7ff3200c82ade00055d7800c0
:1005f0008b05e900f3ff32000c00e000f1ff320050
:1006000019ddba00eeff3700000000000000000016
:1006100000000000000000000000000000000000da
:1006200000000000000000000000000000000000ca
:1006300000000000000000000000000000000000ba
:1006400000000000000000000000000000000000aa
:10065000000000000000000000000000000000009a
:10066000000000000000000000000000000000008a
:10067000000000000000000000000000000000007a
:10068000000000000000000000000000000000006a
:10069000000000000000000000000000000000005a
:1006a000000000000000000000000000000000004a
:1006b000000000000000000000000000000000003a
:1006c000000000000000000000000000000000002a
:1006d000000000000000000000000000000000001a
:1006e000000000000000000000000000000000000a
:1006f00000000000000000000000000000000000fa
:1007000000000000000000000000000000000000e9
:1007100000000000000000000000000000000000d9
:1007200000000000000000000000000000000000c9
:1007300000000000000000000000000000000000b9
:100740003600f800809fbe00829fbe00849fbe00de
:10075000869fbe005b4ea80001e8a900c40aa9005c
:10076000ce0aa9000503070000030700d80207000e
:100770003f0307005b4ea9004f03be004f02be00bf
:100780004f01be004f00be003600f90000400600d9
:10079000809fbe000028a9000850e20006003a0031
:1007a00010c0b30008f0b7000c50a800f1ff2700fc
:1007b000518088000ef0b7004f00be0000400600d8
:1007c0003600f800809fbe00829fbe00849fbe005e
:1007d000869fbe00008080000000e0000100320023
:1007e0000000010005a8a9004f03be004f02be0093
:1007f0004f01be004f00be003600f9000040060069
:100800003600f800809fbe00829fbe00849fbe001d
:10081000869fbe00c068a9002000200007040700d2
:100820004f03be004f02be004f01be004f00be008e
:100830003600f900004006003600f800809fbe0038
:10084000829fbe00849fbe00869fbe00c608a9008e
:1008500070002000f90307004f03be004f02be00e6
:100860004f01be004f00be003600f90000400600f8
:100870003600f800809fbe00829fbe00849fbe00ad
:10088000869fbe00c488ab0005003a00c4a8ab0038
:1008900007003a00c508ab0009003a00ffff370027
:1008a000c488a900a0002000e4030700f7ff370078
:1008b000c4a8a90090002000e0030700f5ff37005e
:1008c000c508a900c0002000dc030700f3ff3700c3
:1008d0003600f800809fbe00829fbe00849fbe004d
:1008e000869fbe00c028a9000000eb00d3030700cc
:1008f0004f03be004f02be004f01be004f00be00be
:100900003600f900004006003600f800809fbe0067
:10091000829fbe00849fbe00869fbe00c088a90043
:1009200030002000c50307004f03be004f02be0089
:100930004f01be004f00be003600f9000040060027
:100940003600f800809fbe00829fbe00849fbe00dc
:10095000869fbe00a00321008007780020052100ab
:1009600000018800c048a90010002000b303070060
:100970004f03be004f02be004f01be004f00be003d
:100980003600f900004006000040da000000fe00da
:1009900000000500889fbe008a9fbe005400f8003a
:1009a0000a0020000a00e0000700320009002000d1
:1009b00008002000a9028800b805ba000b00010059
:1009c0000a85e900fcff3c005400f9004f05be0019
:1009d0004f04be0000000600889fbe008a9fbe0034
:1009e0005400f8000a0020000a00e000f6ff320080
:0c09f0000900200008002000eeff370086
:020000040000fa
:1009fc00000700000e0900001c1b0000121500006f
:100a0c00383f000036310000242300002a2d00005e
:100a1c00707700007e7900006c6b0000626500004e
:100a2c00484f000046410000545300005a5d00003e
:100a3c00e0e70000eee90000fcfb0000f2f500002e
:100a4c00d8df0000d6d10000c4c30000cacd00001e
:100a5c00909700009e9900008c8b0000828500000e
:100a6c00a8af0000a6a10000b4b30000babd0000fe
:100a7c00c7c00000c9ce0000dbdc0000d5d20000ee
:100a8c00fff80000f1f60000e3e40000edea0000de
:100a9c00b7b00000b9be0000abac0000a5a20000ce
:100aac008f88000081860000939400009d9a0000be
:100abc0027200000292e00003b3c000035320000ae
:100acc001f18000011160000030400000d0a00009e
:100adc0057500000595e00004b4c0000454200008e
:100aec006f68000061660000737400007d7a00007e
:100afc00898e000087800000959200009b9c00006e
:100b0c00b1b60000bfb80000adaa0000a3a400005d
:100b1c00f9fe0000f7f00000e5e20000ebec00004d
:100b2c00c1c60000cfc80000ddda0000d3d400003d
:100b3c00696e000067600000757200007b7c00002d
:100b4c00515600005f5800004d4a0000434400001d
:100b5c00191e000017100000050200000b0c00000d
:100b6c00212600002f2800003d3a000033340000fd
:100b7c004e49000040470000525500005c5b0000ed
:100b8c0076710000787f00006a6d000064630000dd
:100b9c003e39000030370000222500002c2b0000cd
:100bac0006010000080f00001a1d000014130000bd
:100bbc00aea90000a0a70000b2b50000bcbb0000ad
:100bcc0096910000989f00008a8d0000848300009d
:100bdc00ded90000d0d70000c2c50000cccb00008d
:100bec00e6e10000e8ef0000fafd0000f4f300007d
:100bfc00940b0000c20b0000100b00000c0b00004b
:100c0c00140b0000260b00002a0b0000300b000018
:100c1c003e0b0000440b0000500b0000540b000076
:100c2c00580b00006a0b00006e0b0000740b0000e8
:100c3c00840b00000f000000210100004e06000094
:100c4c0066060000620600007a060000ba06000084
:100c5c0068080000a807000098060000b206000013
:100c6c00a8060000440900004e090000ac0e00006c
:100c7c00c20e0000be0e0000d60e0000e60e0000f4
:100c8c00000f0000f60e0000080f0000120f00000d
:020000040000fa
:100c9c00f0002000c0168800ca22ef00cc22ef0022
:100cac00d022ef00e022ef00e222ef001012200031
:100cbc004016880000000600c9e2a90000000600ea
:100ccc00fdff0700d822ef00c822ef00ca22ef0078
:100cdc00cc22ef008002200080168800e022ef007a
:100cec00e222ef0000000600804078000040eb009c
:100cfc00c802e2000a0035008180fb00c208dd005a
:100d0c00006228008100400091007800c116880024
:100d1c001012200040168800c9e2a80010c0b300d1
:100d2c0000000600d022ab00feff3a000080fb0062
:100d3c00a0168800d0a2ab00feff3a00a0168000df
:100d4c0000000600d022ab00feff3a000080fb0042
:100d5c00a016880000000600d0a2ab00feff3a00ef
:100d6c00a016800000000600d022ab00feff3a0067
:100d7c00c962ab0006003a00c942ab0033003a002e
:100d8c006011b800828f500055003a000000060038
:100d9c00c208de000100e000690032000001eb0037
:100dac008002eb000003eb000002eb0002003700b6
:100dbc00810f520015003100d022ab0008003a0020
:100dcc008581420083014000b3037800a716880098
:100ddc0093017800b31688008582e8000402e800cd
:100dec00d0a2ab00f2ff3a00820141008301400027
:100dfc00472d200097197800672d2000970978005f
:100e0c000281e8000603e800e9ff37000201410017
:100e1c000200400006003700422d20001208780026
:100e2c00b5168000150098000603e8006400400029
:100e3c00810f530042003100d0a2ab00f6ff32000c
:100e4c00d0a2ab00feff3a00f3ff37008100d100c7
:100e5c000100e0003a0032006011b80002003700d7
:100e6c00810f51000f003100d022ab0005003a0079
:100e7c00020241000402400014027800a41688000b
:100e8c000201e800d0a2ab00f5ff3a00038241005a
:100e9c0004024000472d2000170a78008301e80067
:100eac00efff3700038141000200400003003700d0
:100ebc00422d2000121878008301e800838f500027
:100ecc001f003600d0a2ab00f9ff3200d0a2ab005d
:100edc00feff3a00f6ff3700810f51001100310080
:100eec00d022ab0004003a00020240001482fb0046
:100efc00a41688000201e800d0a2ab00f6ff3a006d
:100f0c00a516800003024000054a78008301e80022
:100f1c00f1ff3700a416800003014000044978005b
:100f2c008301e800838f500005003600d0a2ab008f
:100f3c00f8ff3200d0a2ab00feff3a00f5ff3700fd
:100f4c0000000600d022ab00feff3a00c962ab00e5
:100f5c0006003a00c942ab0026003a006011b80006
:100f6c00828f500042003a0000000600c208de00ea
:100f7c000100e000520032006022b8008001eb005a
:100f8c0002003700818f510013003100d022ab00da
:100f9c0008003a00040142000201400032037800cc
:100fac00a616880012017800b21688000482e800a8
:100fbc008301e800d0a2ab00f2ff3a00a216800039
:100fcc00b21680008502e800eeff3700a016800004
:100fdc00b01680008502e800818f52003800310085
:100fec00d0a2ab00f9ff3200d0a2ab00feff3a005a
:100ffc00f6ff37008100d1000100e0003000320024
:10100c000002eb000001eb0002003700810f5100e1
:10101c000e003100d022ab0005003a0082014100e5
:10102c008301400093017800a31688000201e800b8
:10103c00d0a2ab00f5ff3a00a31680000402e80032
:10104c00f2ff3700a01680000402e800810f520066
:10105c001b003100d0a2ab00faff3200d0a2ab00d3
:10106c00feff3a00f7ff3700810f51000d003100f1
:10107c00d022ab0004003a00020240001482fb00b4
:10108c00a41688000201e800d0a2ab00f6ff3a00db
:10109c00a41680008301e800f3ff3700a01680003f
:1010ac008301e800838f500005003600d0a2ab000e
:1010bc00faff3200d0a2ab00feff3a00f7ff370078
:1010cc0000000600d022ab00feff3a00c962ab0064
:1010dc0007003a00c942ab002e003a006011b8007c
:1010ec000003eb00828f50004d003a000000060018
:1010fc00c208de000100e0005f0032000001eb00de
:10110c006022b8000003eb0002003700810f520090
:10111c0010003100d022ab0003003a00a616880064
:10112c00b61688000402e800d0a2ab00f7ff3a0024
:10113c008201410083014000472d2000971978005f
:10114c00672d2000970978000281e8008502e800ed
:10115c00eeff37000201410002004000060037009c
:10116c00422d200012087800b3168000130098005e
:10117c008502e80064004000818f52003e0031007f
:10118c00d0a2ab00f6ff3200d0a2ab00feff3a00bb
:10119c00f3ff37008100d1000100e000360032007f
:1011ac006011b8008002eb0002003700818f510003
:1011bc000c003100d022ab0002003a00a5168800ca
:1011cc008301e800d0a2ab00f8ff3a000202410014
:1011dc0004024000462d2000160a78000201e800a7
:1011ec00f2ff37008201410003004000030037008a
:1011fc00472d2000171878000201e800810f5100dc
:10120c001d003100d0a2ab00f9ff3200d0a2ab0020
:10121c00feff3a00f6ff3700818f51000f003100be
:10122c00d022ab0002003a00a61688008301e80029
:10123c00d0a2ab00f8ff3a00a516800002024000d5
:10124c00054a78000201e800f3ff3700a41680007d
:10125c0082014000844978000201e800828f50002e
:10126c0005003600d0a2ab00f8ff3200d0a2ab00d4
:10127c00feff3a00f5ff37000000060080168000e4
:10128c004500de006140600010c0b20000000600a6
:10129c0011a00a00d002000010c0b200000006002d
:1012ac00620a8000900a80008000eb00c000dd0024
:1012bc00000020008001eb000200700083807000b1
:1012cc00000006000800fa00f5ff0700a2c5b300f5
:1012dc0082ff9f00d20021001241780092ff9f00f4
:1012ec00a0ff9f00c809de00480add004801de00af
:1012fc0002017200b2ff9f00c1ff9f004808de0090
:10130c00d0ff9f000cd0bf00e0ff9f00e98057008a
:10131c000f82e900010178000040eb00e34f280048
:10132c00524068000080fb000080410010407800b3
:10133c00840f5100faff3a00f0ff9f000c70ef0091
:10134c00800121008f01e9005181fb000228780007
:10135c00838f5000fcff3a000080fa00000006006a
:10136c00ade2a900b4c2a900ade2a80000000600dd
:10137c000800fa00c6aaab0037003200b4a2ab00da
:10138c0035003200b4c2ab0033003a0080022100b9
:10139c00e981570084032100830078005001780014
:1013ac0082687800840f5000fcff3a0050cab300ea
:1013bc008ff8970080cf5000020032000c30a8004c
:1013cc00260037000f81e9000040eb00e14f2800b8
:1013dc00534068000080fb00008040001040780003
:1013ec00830f5100faff3a00fff8970080cf5000ae
:1013fc00020032000c10a800180037009ff897006c
:10140c00d000210001487800cff897002ff8970002
:10141c003ff997000118a300020032005221ef009f
:10142c004c21ef000108a300090032004800dd0048
:10143c000281fb00000071005080880010c0b300d6
:10144c000ef0b7000421ef000870ef000300370026
:10145c00f0ff2700f8ff37000c70a8000080fa009e
:10146c0000000600c42aef00802b200040568800a4
:10147c00a10221005156880081002000615688008d
:10148c0001202000315688001100200054210a0050
:10149c00c40a0000c40aa800d1808000c1158800cd
:1014ac00ce2aef00c101210091568800a056880079
:1014bc0070002000b0568800003020008056880054
:1014cc001000200076200a00ce0a0000ce0aa800e8
:1014dc000000000000000000b462ab00030032000a
:1014ec0070002000d60ae300010032000000060064
:1014fc00cf0aa800fdff3700ade2a900ae22ef0035
:10150c00b022ef00b422ef00ac22ef00ad02a80035
:10151c00ace2a800c222ef00c022ef00c002a8007b
:10152c00c062a8002128a9002148a900bc2aef000c
:10153c000000210000568800f0ff220010568800a1
:10154c00bdeaa8000000eb0051052000b146880060
:10155c00a10a2000b146880000688800a0c2b30030
:10156c0005edb7000080200051052000b146880031
:10157c00a10a2000b146880000688800c228a90092
:10158c0050002000ec200a00460800000021ef006b
:10159c000008800054400a00000300000008880086
:1015ac000421ef0040622200400888005100200016
:1015bc0064210a00400800000028a9002028a80087
:1015cc0001e1a800ade2a8003eff0700a5ff07005f
:1015dc00d50007004400dd000cf0b70001e8a900bd
:1015ec0021e8a80000000600e100210091407800ed
:1015fc000104e000030032000e70ef00a200210095
:10160c0012087800014078000000060041e1a900b2
:10161c000000060041e1a80000000600620a8000fc
:10162c00900a80008000eb00c000dd00000020006c
:10163c008001eb0002007000838070000000060047
:10164c00600a800000000600910a8800600a880089
:10165c000000060061005000e08058007021ef008f
:10166c007221ef00600b8800710b880000000600ef
:10167c0088a00a0044010000000006000004e000fd
:10168c00020032004501a800000006004501a90037
:10169c000000060045e1a8000000060045e1a90095
:1016ac0000000600700b8000620b80008000eb00d5
:1016bc00c000dd00000020008001eb000200700083
:1016cc008380700000000600600b800000000600a4
:1016dc00600b8800710b880000000600670060003a
:1016ec004a00dd00f13f2e00020a8000828060007b
:1016fc0081007000010a8800000006006300600091
:10170c004800dd00f1cf2f00020a800082806000cb
:10171c0081007000010a8800000006004021ef00e3
:10172c0000002400200a88004621ef004821ef0029
:10173c004c21ef004e21ef005221ef005421ef001d
:10174c005621ef005a21ef005c21ef005e21ef00e3
:10175c006021ef006221ef006421ef006621ef00b1
:10176c006a21ef006c21ef006e21ef007021ef0079
:10177c007221ef00000006004021ef004421ef0031
:10178c004621ef004821ef004c21ef004e21ef00e5
:10179c005221ef005421ef005621ef005a21ef00a7
:1017ac005c21ef005e21ef006021ef006221ef0071
:1017bc006421ef006621ef006a21ef006c21ef003d
:1017cc006e21ef007021ef007221ef000000060087
:1017dc00a1c0b300e20f5000130032000b00360022
:1017ec00d1c0b300e70f50000f003200c1c0b300ee
:1017fc00e90f50000c003200b1c0b300e30f5000f1
:10180c0009003200e1c0b3000700370081c0b3000b
:10181c000000e0000400320091c0b300e10f500062
:10182c0001003200e1c0b300014078000000060066
:10183c00b0808800305c2a00c08088000000fe0068
:10184c0000000600037c8000e180610003003a0088
:10185c00305c2a001810e3002d0032000300e00079
:10186c000500350003e8a3000800320060c0b30097
:10187c0014f0b70002003700e0c0b30014f0b7005a
:10188c00802fef001830ef00000006000398a30033
:10189c000300320070c0b30014f0b700f8ff37003b
:1018ac000348a3000300320040c0b30014f0b7009b
:1018bc00f3ff37000368a3000300320050c0b300ed
:1018cc0014f0b700eeff37000378a30003003200da
:1018dc0030c0b30014f0b700e9ff37000100e0009e
:1018ec000300320010c0b30014f0b700e4ff37005f
:1018fc000318a3000300320020c0b30014f0b7009b
:10190c00dfff3700f0c0b30014f0b700dcff370086
:10191c000368a300d1ff3200b0808000acff070049
:10192c0014f0b700d6ff3700410121009140780038
:10193c0001407800000006004f00de0000000600a9
:10194c00ee800a00000000000000060099800a00ea
:10195c0000000000000006004700de00614060004f
:10196c00000006004600de0061406000000006003a
:10197c004400de0061406000000006000080ea00c8
:10198c00800fb600007c880000000600007c800000
:10199c0000000600881f7800fcff07000004780098
:1019ac00e5ff07000004e00016003a00080078008c
:1019bc00e3ff07000004e00015003a00080078007f
:1019cc00e2ff07000004e00014003a000800780071
:1019dc00e1ff07000004e00013003a000800780063
:1019ec00e0ff07000004e00012003a000800780055
:1019fc00dfff07000004e00011003a004f047800fc
:101a0c000000060000002800dcff0700e7ff37009d
:101a1c0000002400d9ff0700e8ff37000020200059
:101a2c00d6ff0700e9ff370000082000d3ff0700ae
:101a3c00eaff370000042000d0ff0700ebff37005f
:101a4c0000012000cdff0700ecff3700802fef00d6
:101a5c00000006000000060000002800e0028800dc
:101a6c0000000600000024000003880010c0b30032
:101a7c0006f0b700000006000670ef006800ab002f
:101a8c00feff3200800020002003880000000600ca
:101a9c0040038000614060000000060061002100ee
:101aac00914078000140780000000600b0038000ef
:101abc00a20380008000eb00c000dd0000002000cd
:101acc008001eb00020070008380700000000600b3
:101adc00d0038000c20380008000eb00c000dd005a
:101aec00000020008001eb00020070008380700079
:101afc0000000600100e20006800b6000000060072
:101b0c0070038000620380008000eb00c000dd00e9
:101b1c00000020008001eb00020070008380700048
:101b2c00000006000000e000010032000080880088
:101b3c0000000600c3e8a90000000000000000003f
:101b4c00e4000700c3e8a80000000000000000004b
:101b5c0000d32000f3ff070025a8a8000000060012
:101b6c00062eef00222eef003e2eef005a2eef0035
:101b7c00f001200010708800b17e2f00f1708800f9
:101b8c00f1ff2300d171880021102200b17288006e
:101b9c000a2eef00262eef00422eef005e2eef00f5
:101bac000c2eef00282eef00442eef00602eef00dd
:101bbc00082eef00242eef00402eef005c2eef00dd
:101bcc0000708800a0082000e0708800f00c200055
:101bdc00c071880000002200a07288000000eb0099
:101bec0051052000b1468800a10a2000b1468800aa
:101bfc000068880080c2b30020edb70090c2b3002b
:101c0c0021edb700d0c2b3002dedb700e0c2b30098
:101c1c002cedb700a0c2b3002eedb7008000200061
:101c2c0050200a00820d000051002000d8210a002b
:101c3c008a0d000000c2b30031edb7009000200007
:101c4c0050200a00800d000000802000510520006b
:101c5c00b1468800a10a2000b146880000688800bf
:101c6c0000000600eca00a00840f0000e14f5000b9
:101c7c0004003200eca00a00840f0000e34f500077
:101c8c0011003a0080cfb300854fb60081c7b30076
:101c9c00a2c9b30053f8200081497800824978002a
:101cac008049780060c4b30012c0b30071c5b300a2
:101cbc0043f82000804978008149780082497800f7
:101ccc00840fab00feff3a0010002300307c88002c
:101cdc0060092000407c88008c2fef00100420004d
:101cec00507c8800b82fef00ba2fef00be2fef000a
:101cfc00002def00a02fef00a42fef00a62fef0078
:101d0c00a82fef00aa2fef00ae2fef00b02fef009f
:101d1c00b22fef000040eb0081c7b300a2c9b300a3
:101d2c0053f8200081497800824978008049780076
:101d3c0061c4b30072c5b30043f820008149780038
:101d4c00824978008049780000000600bc22ef0030
:101d5c00ae22ef00b022ef00b422ef00c422ef005d
:101d6c00c622ef0010182000601588000000060045
:101d7c00ade2a90000000600fdff0700bc22ef0049
:101d8c00ac22ef00ae22ef00b022ef008002200068
:101d9c00a0158800c422ef00c622ef000000060048
:101dac000040eb00ac02e2000400350010182000eb
:101dbc0060158800ade2a80010c0b300000006005a
:101dcc00b422ab00feff3a000080fb00c015880077
:101ddc00b4a2ab00feff3a00c01580000000060064
:101dec00b422ab00feff3a000080fb00c015880057
:101dfc0000000600b4a2ab00feff3a00c015800044
:101e0c0000000600a01580004500de006140600067
:101e1c0010c0b2000000060011a00a00b4020000bd
:101e2c0010c0b200000006001000200050200a0074
:101e3c00860f0000d0072000b0200a00880f000099
:101e4c005000200064200a008a0f000010002000bf
:101e5c0020200a008a0f000080c7b30012c0b30014
:101e6c00a1c9b30053f8200080497800814978005b
:101e7c0082497800207c80001040b30061c4b3001c
:101e8c0072c5b30043f8200081497800824978007c
:101e9c0080497800840fab00feff3a0084afab00a2
:101eac00feff3200000006000000fe00860d02005e
:101ebc0000000000821f78001280800000001100da
:101ecc0002002000810019004f017800000006007c
:101edc000000fe00801f7800811f7800821f7800b0
:101eec0060038000801f7800860d02000000000057
:101efc004f017800020150000201e90012808800b5
:101f0c004f017800cf0078004f00780000000600e9
:101f1c000200fa00881f78004afe07003d00070007
:101f2c00c1ff070040002000db200a004401000034
:101f3c0041e1a80027000700f0ff27002900070057
:101f4c006dfd0700f8ff2700020037002500070091
:101f5c006fbc970064805700a3fd07000004e000ed
:101f6c00fcff32006fb89700880f5000f9ff320069
:041f7c00f6ff370035
:020000040000fa
:101f80001a1000002000000080000000081000006f
:101f900004000000820000000100ff007f0000003c
:101fa0000c1000000400000080000000141000006d
:101fb0000200000080000000001000000800000087
:101fc000800000003a1000002000000080000000a7
:101fd000101000000400000080000000000000005d
:020000040000fa
:101fe000228ea8000040eb0042fb07000000060024
:101ff000881f780000047800228ea90000c1b30079
:102000004bfb07004840de0049fb07000840780012
:1020100047fb0700228ea8004f047800000006004e
:1020200013ff0700d1fe0700c5fe0700befd070035
:1020300049ff070019fb0700c3e8a80000000000e3
:1020400000000000010007000000060056c8bf00a5
:1020500064400a000001000056e8b70000000600d6
:1020600056c8bf0064400a000004000056e8b700ec
:1020700000000600809fbe00ec8057003100780011
:10208000808088001100780012f0b7004f00be0079
:0c209000000006000000fe00000006003a
:020000040000fa
:020000040001f9
:045e0000ffffff00a1
:020000040000fa
:020000040001f9
:045e2000ffffff0081
:020000040000fa
:020000040001f9
:045e300078ffff00f8
:020000040000fa
:020000040001f9
:045e38007bffff00ed
:020000040000fa
:020000040001f9
:045e4000ff7fff00e1
:020000040000fa
:020000040001f9
:045e4800ffffff0059
:020000040000fa
:020000040001f9
:045e5000dfffff0071
:020000040000fa
:020000040001f9
:045e58000000ff0047
:020000040000fa
:020000040001f9
:045e60000000ff003f
:020000040000fa
:020000040001f9
:045e68000000ff0037
:020000040000fa
:020000040001f9
:045e70000000ff002f
:020000040000fa
:020000040001f9
:045e7800ffffff0029
:020000040000fa
:020000040001f9
:045e8000fffcff0024
:020000040000fa
:020000040001f9
:045e8800ffffff0019
:00000001FF
