:020000040000fa
:080000000002040000000000f2
:020000040000fa
:0400080032040000be
:020000040000fa
:04000c00b603000037
:020000040000fa
:04001000d603000013
:020000040000fa
:040014007204000072
:020000040000fa
:04001800520400008e
:020000040000fa
:04001c00ba04000022
:020000040000fa
:04002000f6030000e3
:020000040000fa
:04002400ba0400001a
:020000040000fa
:04002800ba04000016
:020000040000fa
:04002c00ba04000012
:020000040000fa
:04003000ba0400000e
:020000040000fa
:04003400ba0400000a
:020000040000fa
:04003800ba04000006
:020000040000fa
:04003c00ba04000002
:020000040000fa
:04004000ba040000fe
:020000040000fa
:04004400ba040000fa
:020000040000fa
:04004800ba040000f6
:020000040000fa
:04004c00ba040000f2
:020000040000fa
:04005000ba040000ee
:020000040000fa
:04005400ba040000ea
:020000040000fa
:04005800ba040000e6
:020000040000fa
:04005c00ba040000e2
:020000040000fa
:04006000ba040000de
:020000040000fa
:04006400ba040000da
:020000040000fa
:04006800ba040000d6
:020000040000fa
:04006c00ba040000d2
:020000040000fa
:04007000ba040000ce
:020000040000fa
:04007400ba040000ca
:020000040000fa
:04007800ba040000c6
:020000040000fa
:04007c00ba040000c2
:020000040000fa
:04008000ba040000be
:020000040000fa
:04008400ba040000ba
:020000040000fa
:04008800ba040000b6
:020000040000fa
:04008c00ba040000b2
:020000040000fa
:04009000ba040000ae
:020000040000fa
:04009400ba040000aa
:020000040000fa
:04009800ba040000a6
:020000040000fa
:04009c00ba040000a2
:020000040000fa
:0400a000ba0400009e
:020000040000fa
:0400a400ba0400009a
:020000040000fa
:0400a800ba04000096
:020000040000fa
:0400ac00ba04000092
:020000040000fa
:0400b000ba0400008e
:020000040000fa
:0400b400ba0400008a
:020000040000fa
:0400b800ba04000086
:020000040000fa
:0400bc00ba04000082
:020000040000fa
:0400c000ba0400007e
:020000040000fa
:0400c400ba0400007a
:020000040000fa
:0400c800ba04000076
:020000040000fa
:0400cc00ba04000072
:020000040000fa
:0400d000ba0400006e
:020000040000fa
:0400d400ba0400006a
:020000040000fa
:0400d800ba04000066
:020000040000fa
:0400dc009404000088
:020000040000fa
:0400e000ba0400005e
:020000040000fa
:0400e400ba0400005a
:020000040000fa
:0400e800ba04000056
:020000040000fa
:0400ec00ba04000052
:020000040000fa
:0400f000ba0400004e
:020000040000fa
:0400f400ba0400004a
:020000040000fa
:0400f800ba04000046
:020000040000fa
:0400fc00ba04000042
:020000040000fa
:04010000ba0400003d
:020000040000fa
:04010400ba04000039
:020000040000fa
:04010800ba04000035
:020000040000fa
:04010c00ba04000031
:020000040000fa
:04011000ba0400002d
:020000040000fa
:04011400ba04000029
:020000040000fa
:04011800ba04000025
:020000040000fa
:04011c00ba04000021
:020000040000fa
:04012000ba0400001d
:020000040000fa
:04012400ba04000019
:020000040000fa
:04012800ba04000015
:020000040000fa
:04012c00ba04000011
:020000040000fa
:04013000ba0400000d
:020000040000fa
:04013400ba04000009
:020000040000fa
:04013800ba04000005
:020000040000fa
:04013c00ba04000001
:020000040000fa
:04014000ba040000fd
:020000040000fa
:04014400ba040000f9
:020000040000fa
:04014800ba040000f5
:020000040000fa
:04014c00ba040000f1
:020000040000fa
:04015000ba040000ed
:020000040000fa
:04015400ba040000e9
:020000040000fa
:04015800ba040000e5
:020000040000fa
:04015c00ba040000e1
:020000040000fa
:04016000ba040000dd
:020000040000fa
:04016400ba040000d9
:020000040000fa
:04016800ba040000d5
:020000040000fa
:04016c00ba040000d1
:020000040000fa
:04017000ba040000cd
:020000040000fa
:04017400ba040000c9
:020000040000fa
:04017800ba040000c5
:020000040000fa
:04017c00ba040000c1
:020000040000fa
:04018000ba040000bd
:020000040000fa
:04018400ba040000b9
:020000040000fa
:04018800ba040000b5
:020000040000fa
:04018c00ba040000b1
:020000040000fa
:04019000ba040000ad
:020000040000fa
:04019400ba040000a9
:020000040000fa
:04019800ba040000a5
:020000040000fa
:04019c00ba040000a1
:020000040000fa
:0401a000ba0400009d
:020000040000fa
:0401a400ba04000099
:020000040000fa
:0401a800ba04000095
:020000040000fa
:0401ac00ba04000091
:020000040000fa
:0401b000ba0400008d
:020000040000fa
:0401b400ba04000089
:020000040000fa
:0401b800ba04000085
:020000040000fa
:0401bc00ba04000081
:020000040000fa
:0401c000ba0400007d
:020000040000fa
:0401c400ba04000079
:020000040000fa
:0401c800ba04000075
:020000040000fa
:0401cc00ba04000071
:020000040000fa
:0401d000ba0400006d
:020000040000fa
:0401d400ba04000069
:020000040000fa
:0401d800ba04000065
:020000040000fa
:0401dc00ba04000061
:020000040000fa
:0401e000ba0400005d
:020000040000fa
:0401e400ba04000059
:020000040000fa
:0401e800ba04000055
:020000040000fa
:0401ec00ba04000051
:020000040000fa
:0401f000ba0400004d
:020000040000fa
:0401f400ba04000049
:020000040000fa
:0401f800ba04000045
:020000040000fa
:0401fc00ba04000041
:020000040000fa
:04020000ba0400003c
:020000040000fa
:04020400ba04000038
:020000040000fa
:04020800ba04000034
:020000040000fa
:04020c00ba04000030
:020000040000fa
:04021000ba0400002c
:020000040000fa
:04021400ba04000028
:020000040000fa
:04021800ba04000024
:020000040000fa
:04021c00ba04000020
:020000040000fa
:04022000ba0400001c
:020000040000fa
:04022400ba04000018
:020000040000fa
:04022800ba04000014
:020000040000fa
:04022c00ba04000010
:020000040000fa
:04023000ba0400000c
:020000040000fa
:04023400ba04000008
:020000040000fa
:04023800ba04000004
:020000040000fa
:04023c00ba04000000
:020000040000fa
:04024000ba040000fc
:020000040000fa
:04024400ba040000f8
:020000040000fa
:04024800ba040000f4
:020000040000fa
:04024c00ba040000f0
:020000040000fa
:04025000ba040000ec
:020000040000fa
:04025400ba040000e8
:020000040000fa
:04025800ba040000e4
:020000040000fa
:04025c00ba040000e0
:020000040000fa
:04026000ba040000dc
:020000040000fa
:04026400ba040000d8
:020000040000fa
:04026800ba040000d4
:020000040000fa
:04026c00ba040000d0
:020000040000fa
:04027000ba040000cc
:020000040000fa
:04027400ba040000c8
:020000040000fa
:04027800ba040000c4
:020000040000fa
:04027c00ba040000c0
:020000040000fa
:04028000ba040000bc
:020000040000fa
:04028400ba040000b8
:020000040000fa
:04028800ba040000b4
:020000040000fa
:04028c00ba040000b0
:020000040000fa
:04029000ba040000ac
:020000040000fa
:04029400ba040000a8
:020000040000fa
:04029800ba040000a4
:020000040000fa
:04029c00ba040000a0
:020000040000fa
:0402a000ba0400009c
:020000040000fa
:0402a400ba04000098
:020000040000fa
:0402a800ba04000094
:020000040000fa
:0402ac00ba04000090
:020000040000fa
:0402b000ba0400008c
:020000040000fa
:0402b400ba04000088
:020000040000fa
:0402b800ba04000084
:020000040000fa
:0402bc00ba04000080
:020000040000fa
:0402c000ba0400007c
:020000040000fa
:0402c400ba04000078
:020000040000fa
:0402c800ba04000074
:020000040000fa
:0402cc00ba04000070
:020000040000fa
:0402d000ba0400006c
:020000040000fa
:0402d400ba04000068
:020000040000fa
:0402d800ba04000064
:020000040000fa
:0402dc00ba04000060
:020000040000fa
:0402e000ba0400005c
:020000040000fa
:0402e400ba04000058
:020000040000fa
:0402e800ba04000054
:020000040000fa
:0402ec00ba04000050
:020000040000fa
:0402f000ba0400004c
:020000040000fa
:0402f400ba04000048
:020000040000fa
:0402f800ba04000044
:020000040000fa
:0402fc00ba04000040
:020000040000fa
:04030000ba0400003b
:020000040000fa
:04030400ba04000037
:020000040000fa
:04030800ba04000033
:020000040000fa
:04030c00ba0400002f
:020000040000fa
:04031000ba0400002b
:020000040000fa
:04031400ba04000027
:020000040000fa
:04031800ba04000023
:020000040000fa
:04031c00ba0400001f
:020000040000fa
:04032000ba0400001b
:020000040000fa
:04032400ba04000017
:020000040000fa
:100400008f0921000eff22000e018800000000006d
:10041000000020000000e000020032000001200087
:1004200020028800140007007a0107000000e000a5
:1004300003003a00c0bd2100010020000200370087
:100440000000200001002000810f70000100320038
:100450000f000700000020000000e0000200320052
:100460000000020000000000741c020000000000f8
:100470000040da000000fe00e00620000000e0007e
:1004800002003200002020009001880000000600d9
:10049000a1028800800478000000eb001f003700f4
:1004a000e284440054a0b4009905ba00e2844400f8
:1004b00054a0b4009906ba00e284440054a0b400e9
:1004c0000006eb00476fde00fd07b200ae018800ba
:1004d000636ce10003003a000ad801000000eb0061
:1004e0000e003700606ce10008003a00004deb00a0
:1004f0000a05e800020039003420ec000af0a000f0
:100500008b05e900f9ff3e00040037006168e10057
:10051000010032000086eb000b00070019c7ba008b
:100520001905ba000e04e00003003a000a00e000da
:10053000dbff3a0000000600fe07b200ae028800b2
:100540008a047800f5ff37000cd0a300e20f4d00bd
:100550001c003b0089027800354dba000a05e8000e
:10056000020039003420ec000af0a0008b05e900fd
:100570000f003200254dba000a05e80002003900dc
:100580003420ec000af0a0008b05e90008003200de
:100590000c00e0000600320015cdba000a05e800a4
:1005a000020039003420ec000af0a0008b05e900bd
:1005b0008984e80054a0b4000b00e000e2ff3a0098
:1005c000000006009902ba00055d78008b05e9007d
:1005d000f7ff3200c82ade00055d78008b05e900d0
:1005e000f3ff32000c00e000f1ff320019ddba0029
:1005f000eeff3700000000000000000000000000d7
:1006000000000000000000000000000000000000ea
:1006100000000000000000000000000000000000da
:1006200000000000000000000000000000000000ca
:1006300000000000000000000000000000000000ba
:1006400000000000000000000000000000000000aa
:10065000000000000000000000000000000000009a
:10066000000000000000000000000000000000008a
:10067000000000000000000000000000000000007a
:10068000000000000000000000000000000000006a
:10069000000000000000000000000000000000005a
:1006a000000000000000000000000000000000004a
:1006b000000000000000000000000000000000003a
:1006c000000000000000000000000000000000002a
:1006d000000000000000000000000000000000001a
:1006e000000000000000000000000000000000000a
:1006f00000000000000000000000000000000000fa
:1007000000000000000000000000000000000000e9
:1007100000000000000000000000000000000000d9
:1007200000000000000000000000000000000000c9
:1007300000000000000000000000000000000000b9
:1007400000000000000000000000000000000000a9
:100750000000000000000000000000000000000099
:100760000000000000000000000000003600f8005b
:10077000809fbe00829fbe00849fbe00869fbe00f9
:100780000000fa00c068a90020002000ba0c070091
:100790000080fa004f03be004f02be004f01be00b2
:1007a0004f00be003600f900004006003600f80099
:1007b000809fbe00829fbe00849fbe00869fbe00b9
:1007c0000000fa00c608a90070002000aa0c07006b
:1007d0000080fa004f03be004f02be004f01be0072
:1007e0004f00be003600f900004006003600f80059
:1007f000809fbe00829fbe00849fbe00869fbe0079
:100800000000fa0020468000700060000000e00058
:1008100003003200c488a900a0002000960c070045
:100820002146800000022000008060000000e000ff
:1008300003003200c4a8a900900020008e0c07001d
:100840002146800000102000008060000000e000d1
:1008500003003200c508a900c0002000860c070074
:10086000ffff37003600f800809fbe00829fbe0069
:10087000849fbe00869fbe000000fa00c028a90029
:100880000000eb007c0c07000080fa004f03be0064
:100890004f02be004f01be004f00be003600f900ff
:1008a000004006003600f800809fbe00829fbe0018
:1008b000849fbe00869fbe000000fa00c088a90089
:1008c000300020006c0c07000080fa004f03be00cf
:1008d0004f02be004f01be004f00be003600f900bf
:1008e000004006003600f800809fbe00829fbe00d8
:1008f000849fbe00869fbe000000fa00650c0700c2
:10090000c048a900100020005b0c07000080fa001e
:100910004f03be004f02be004f01be004f00be009d
:100920003600f900004006003600f800809fbe0047
:10093000829fbe00849fbe00869fbe000000fa001a
:10094000308080000000e000020032003080800033
:100950000000010005a8a9000080fa004f03be00b6
:100960004f02be004f01be004f00be003600f9002e
:10097000004006000040da000000fe000a00fa0015
:1009800011002000b1bf9f00c0bf9f006a805700c8
:10099000120607004fb897000080fa00000006001a
:1009a0000800fa0010079800210798003207980005
:1009b0000000eb00000f780000000000cb070700ec
:1009c0000004a2000004e000fcff3a000a00370027
:1009d00000000000b50707000004a2000004e000ca
:1009e000fcff3a002e0090001e00400010407800ee
:1009f0001e0fe800980707003e0090009e00780058
:100a0000808f5000f2ff39001e0078000080fa004d
:100a100000000600000005006022b8000602200069
:100a20000000d0008180d2000482d2008582d200f2
:100a30000000a0000202520083825a00030031002d
:100a40000202420083824a000000a1000603e9007e
:100a5000f3ff3a00000006000000fa00688157002a
:100a6000cfb89700b080800010007800f001070038
:100a70000080fa00000006000d0007006600070075
:100a800019010700410107009a00070067020700eb
:100a90001202370000000600c0012100000006001d
:100aa000fdff0700d0808800c0808800000006009d
:100ab000ec874700889fbe008a9fbe008c9fbe00c7
:100ac0008e1f780000067800010478001807900057
:100ad0002805900098067800cdb79f00b8059000d3
:100ae0003202be002203be000400be000601be00aa
:100af0004f18de006011b8008000eb00d0b79f00f7
:100b0000e1b79f00f2b79f0083bf9f008004780089
:100b10000900e000060032006000b8006011b80073
:100b2000040250008582580006035900878359004b
:100b30000e00e000020035000d10a100cdb79f00af
:100b40000900e00005003a004fb097000028a3001c
:100b500002003a000038a300020032008a00e900d7
:100b6000010037008a007800f8815700a2002000b9
:100b700008007800890007000900e00003003a003f
:100b8000cfb097000128a300080032000000e90060
:100b900000814500b1c2b3000900e000010032004d
:100ba000d1c2b30001497800060037000138a30024
:100bb000040032000000e9008080450002c2b3005a
:100bc00082487800480190000201e90000015100cc
:100bd000808045004fb297008a0178000c007800b1
:100be0005d0207009c0090000188a3000400320011
:100bf00098009000810f500001003d000100780036
:100c00004f0778004f06be004f05be004f04be00e0
:100c1000cf00b100000006000200fa00889fbe006d
:100c20008a9fbe00800578000104780002007800e9
:100c3000180190002805900098007800b1bf9f002f
:100c4000b80490000200e000020035000110a1008d
:100c5000b1bf9f00ea815700820020008a0078001f
:100c60003002be002003be00080078004b000700e1
:100c70003fb99700f0006100040032000000e90075
:100c80008080440002c3b300824878003fb99700d7
:100c9000e8006100040032000000e90080804400a8
:100ca00002c2b30082487800480190000201e900c6
:100cb00000015100808044003fba97008a0178000b
:100cc0000b007800240207009b0090000188a3001d
:100cd0000400320098009000810f500001003d0098
:100ce000010078004f05be004f04be000080fa00ee
:100cf00000000600ea874700889fbe008a9fbe006a
:100d00008e1f780000047800030078007287570077
:100d100084e2260055c72600049fbe00c396220029
:100d2000030f78006c875700004feb00110590000f
:100d3000a1049000910578000200e000020032005a
:100d40000207780001003700728757000000e000ba
:100d500002003a000e007800cd0407000a00e0000f
:100d6000030035008a0f5000010036000a007800a9
:100d70000b02780089017800000178008e0078006d
:100d800008007800f40107004f0778004f05be0007
:100d90004f04be00af00b10000000600f48747001a
:100da000889fbe008a9fbe008c9fbe008e1f780069
:100db0000605be000404be0081bf9f0082b79f00ed
:100dc000f3b79f00b0009000e1b79f0013017800d7
:100dd00092b79f0090069000400090000000e9004c
:100de000000678000d00e00001003d001d0020001d
:100df000efb19700008041000048eb001e0020008a
:100e00001f0037000c06e9000fb09700cf80de000e
:100e10006109b900a0b79f00b1b79f00c2b79f009a
:100e2000d3b79f000203be000002be000800be0050
:100e30000a01be00c505070000077800efb0970063
:100e40000c80400003c3b300034847008d06e9004f
:100e50000fb897000000e90080bf9f002fb29700f5
:100e6000bfb297004fb39700dfb397000800be00f2
:100e70000a01be00ae0507000205be000004be0068
:100e80000c00e0000d003400e00f5400e08f5c0027
:100e9000e00f5d00e08f5d00daff3a000d00e0003a
:100ea000d8ff3c008fb897000100e0000300340039
:100eb0001fb197000218a300d2ff3a000e00e00015
:100ec00002003a00ffb197001340a1000c00780027
:100ed0004f0778004f06be004f05be004f04be000e
:100ee0004f01b100000006000200fa00889fbe001a
:100ef0008a9fbe0000057800010478000200780097
:100f000018019000a804900098007800b1bf9f00dd
:100f1000b80590000200e000020035000110a100b9
:100f2000b1bf9f00ea815700a2002000890078002d
:100f30003002be002003be000800780097ff0700c3
:100f4000480190000201e900000151008080450045
:100f50003fba9700890178000a0078007e010700f7
:100f60009a0090000188a3000400320098009000cd
:100f7000810f500001003d00010078004f05be00c8
:100f80004f04be000080fa0000000600fa87470008
:100f9000889fbe008a9fbe008c9fbe008e1f780077
:100fa0008004780001047800820578001801900020
:100fb0002805900018077800b80090000200e000b3
:100fc000020035000e10a1000100370012002000c1
:100fd00070006700e0b79f00090032003b02be00ce
:100fe0002b03be00e00f5200e08f5a00e00f5b00c1
:100ff000e08f5b00020032008a86e90001003700c2
:101000008a067800e8026700f5b79f000100320009
:101010008d06e9003b02be002b03be00e4af9f003b
:10102000f5af9f0086b79f0097b79f0048069000d6
:101030000c06e9000c8040000048eb00efb297007e
:101040007fb297008903780081047800d8af9f00b1
:10105000020478008bbf9f008a0578000345780062
:101060002b0037000c06e9006fab97006f006300a0
:10107000e90f500002003c000003b00001003700ff
:101080007005b0000a03fb001604b100f90f53000d
:101090000c003e00000378000650a0001606b100c8
:1010a000f90f530007003e00b4b79f00a5b79f009b
:1010b000c7b79f001f040700cfb39700afb29700d8
:1010c0003fb297000c834400004b78000804e9000d
:1010d0008d06e9006fa89700ffa897000fb1970051
:1010e0009fb19700460020008301d1000281d30008
:1010f0008180d3000080d3000603e900faff3a00a4
:10110000e0af9f00f1af9f0082b79f0093b79f00b1
:10111000e10f56000f0034006fa89700ffa897005a
:101120000fb197009fb19700e00f5000e08f58007b
:10113000e00f5900e08f5900caff3a000800e000b4
:10114000c8ff3c000d00e000020034000e18a300b0
:10115000c4ff3a0089007800f4b79f008704780044
:101160005fac97008a4178000b0578008fbd97002f
:101170000500e000120032003b02be002b03be005f
:10118000e4af9f00f5af9f0086b79f0097b79f0021
:10119000e00f5200e08f5a00e00f5b00e08f5b0031
:1011a000070032000c06e9000c804000034878007c
:1011b0000c06e9000c80400002c3b300024878002e
:1011c000ffb297000500e000040032000c06e900c1
:1011d0000c80400002c2b300024878004801900031
:1011e0000201e9000c0151008c8040000e027800e1
:1011f0008a01780009007800d70007009900900064
:101200000188a3000400320098009000810f500074
:1012100001003d00010078004f0778004f06be0036
:101220004f05be004f04be00af01b1000000060034
:101230000200fa00881f780000047800e2bf9f00d7
:10124000648157000800780085020700980090002c
:101250000148a300010032000080eb004f04780039
:101260000080fa0000000600889fbe00000478009d
:101270004800900082047800808f540001003600fe
:1012800080047800090178005800900015030700d9
:10129000580090000900400050049800c8009000d9
:1012a00089845000490498000048eb004f04be00b8
:1012b0000000060010007800b9fd37009001900092
:1012c0000388a30001003200e7ff37000348a300b2
:1012d00001003a00f7ff0700000006008408200024
:1012e000848f50001d0032000d003c0014082000c7
:1012f000848f50002700320002003c0004082000c8
:101300000400370024082000848f5000340032008d
:1013100044082000848f500043003a003600370014
:10132000040a2000848f50002700320004003c0093
:1013300004092000848f50003b003a002800370049
:10134000020c2000828f50002f003200020f20007c
:10135000828f500034003a002b0037009380e90060
:101360000200e00005003200810978001102fb0054
:10137000cfa2de00612bb900280037008109780078
:10138000114278000482fb008002eb006033b80059
:101390002200370013027800e40052000200e0004f
:1013a00005003200810978001102be004fabde005b
:1013b0008603780019003700810978001102be0009
:1013c0006033b800150037009380e9008109780088
:1013d00011027800cfa2de00612bb9000f003700a8
:1013e00093027800e8805200810978003102be0043
:1013f0002103be00090037009380e9000200e000ed
:1014000002003200f1ff37009380e9008109780083
:10141000110278008002eb006033b8000498be002f
:101420000690be00100005000000050044082000e2
:10143000848f50002500320008003c001408200072
:10144000848f50001400320024082000848f500044
:1014500024003200040820000c003700040920009a
:10146000848f50001f00320004003c0084082000dc
:10147000848f500024003a000e003700040a200038
:10148000848f500011003200040c2000848f500023
:101490001d003a000d0037009380e90081097800b3
:1014a0009100780001087800cf91de008288be00ac
:1014b000140037009380e9008109780091007800da
:1014c00001087800824878000e0037009380e90018
:1014d000810978009100780001087800820878007e
:1014e000080037009380e9008109780091007800b6
:1014f000010878006112b900612bb9008498be0020
:101500008690be001000050000000500889fbe0008
:10151000000478004800900082047800808f540016
:10152000010036008004780009017800580090001e
:101530006c02070058009000090040005004980019
:10154000c800900089845000490498000048eb00ce
:101550004f04be0000000600f2874700889fbe00cf
:101560008a9fbe008c9fbe008e1f7800800478008a
:1015700001057800020478008305780061076200a5
:1015800002003a008b0f540008003900080178006f
:101590008a0078000900780048ff07008b0f54008c
:1015a00002003900880578001e00370008865500c3
:1015b0000c017800f00f56000100360002012000f7
:1015c000010220007e8057004d0207008c06780043
:1015d0000500370002012000fe8057000900780056
:1015e00036ff0700f0865600ef8f5600f9ff3e00e9
:1015f0004461de0000ff2f008091b9000c01410022
:10160000fe805700090078002cff07000e00e00064
:1016100004003a00080178008a0078000900780088
:1016200026ff07000b0078004f0778004f06be002a
:101630004f05be004f04be002f01b10000000600a0
:101640000000050000000500000005000001780012
:101650000040eb008080fb008180400003082100f7
:1016600081814100134278000404e00004003a0044
:1016700010082100810040001140780000000600a1
:1016800092017800934f520005003a0010082100a3
:1016900081004000114078000309e8000100370094
:1016a0000040e800ea4f5000eaff36000000060064
:1016b000f6874700889fbe008a9fbe008c9fbe00b1
:1016c0008e1f7800000578000104780083057800fb
:1016d000040678000000eb00c0b79f008080eb009c
:1016e000d1b79f00e0b79f00f2b79f00000820002d
:1016f00080bf9f0098007800010078008004eb0014
:10170000010037008904e800304178000204e0005d
:101710000300320053c2b300834f5100f9ff3a0077
:101720000900e00004003200090178000a00780096
:10173000e2fe0700188c44001807780050c2b3007e
:101740009e4f10003f013a000e07e8000e0c780093
:1017500010003700cfb097000100a0000b00370049
:10176000cfb097000110a00008003700cfb097005d
:101770000120a00005003700cfb097000130a00085
:1017800002003700cfb097000140a000c1b79f0012
:10179000000ce8001800780090407800b2c2b30056
:1017a00082cf5000f1ff320007003c0002c2b300bc
:1017b00082cf5000f0ff320032c2b30082cf50001f
:1017c00007003a00efff3700d2c2b30082cf5000cb
:1017d000e0ff320002c3b30082cf5000e0ff3200ce
:1017e000a2c2b30082cf50000d003a00000ce80006
:1017f0001c80e900000e780010007800e0b79f0020
:101800000000e0000f003d00cfb097000100a200f3
:10181000c1b79f000000ea00e0b79f000900370051
:1018200084010700e0b79f0001003700000ce800ca
:10183000180078009000fb000103b100e98f500010
:10184000faff36004fb097000008a30002003200f4
:101850000010a100c0b79f0018007800e1c2b300db
:1018600090cf100016003a008000eb00d1b79f0027
:101870000000e800000c7800a1c2b30090cf100077
:1018800006003a00000ce8001c80e900000e780019
:1018900010007800d0b79f000900370065010700ed
:1018a000d0b79f0001003700000ce8001800780056
:1018b0009000fb000103b100e98f5000faff3600f1
:1018c0000800780061ff0700804678001800780063
:1018d0001000fb001002070091062000810f50004d
:1018e0003800320012003c0041062000810f5000f9
:1018f000340032000a003c0011062000810f500025
:101900002000320031062000810f5000a00032007c
:1019100051022000810f5000bc003a00b400370093
:1019200071062000810f5000b8003c00880037008d
:1019300001072000810f50005c00320007003c00ce
:10194000e1062000810f50007a003200f1062000ed
:10195000810f5000ad003a003900370051072000d8
:10196000810f50002700320081072000810f5000b6
:101970004200320031072000810f5000a3003a00de
:101980008f0037008d80fb000c01780000fe2f00d7
:101990000f004000f20107000000e000a800320044
:1019a00018007800000ce8009041780002fe2f003b
:1019b0000f014100f88057000a00780021ff07005e
:1019c0000e0037008d80fb008c0178001200200093
:1019d00000fe2f000f00400040fe07000000e00066
:1019e00097003200180ce80002fe2f000f014100a2
:1019f000f88057000a0078002dfc0700808444001e
:101a0000900037008d80fb008c0178000001eb0016
:101a100000fe2f000f00400030fe07000000e00035
:101a200087003200180ce80002fe2f000f01410071
:101a3000f88057000a0078002bfd0700efff370001
:101a40008d80fb008c0178000001eb0000fe2f0070
:101a50000f00400021fe07000000e0007800320087
:101a6000180ce80002fe2f000f014100f88057001b
:101a70000a00780068fc0700e0ff37008d80fb005b
:101a80008c0178000001eb0000fe2f000f004000e9
:101a900012fe07000000e000690032001800780024
:101aa000000ce800904178001c0037008c017800a1
:101ab0000001eb00010f200000fe2f000f0040008e
:101ac00006fe07000000e0005d003200180ce80090
:101ad0000fb097009fb097002fb19700bfb197004c
:101ae000e00f5000e08f5800e00f5900e08f5900e0
:101af00009003a00cfb597006fb497008007210026
:101b0000630107000b02780088017800000178006b
:101b1000810721004700370083c7b30002fe2f0072
:101b20000f014100f88057000a00780017fd0700f8
:101b3000b2ff37000b8144008d80fb008c017800e0
:101b400000fe2f000f00400038fe07003c00370069
:101b50008d80fb000c01780000fe2f000f0040007c
:101b60007f0107000000e000350032001800780017
:101b7000000ce8009041780002fe2f000f014100a8
:101b8000f88057000a007800aefe07009bff370080
:101b900000c8b30080cf560029003a00180ce800b6
:101ba0001c80e900000e780010407800e0df9f0004
:101bb00013002000e2fd2f000f0141000800370054
:101bc00000c8b30080cf56001d003a00180ce80092
:101bd0001c80e900000e78008001eb001001780005
:101be000f88057000a00780042fc070083ff3700a6
:101bf00000c8b30080cf560011003a00180ce8006e
:101c00004fb29700efb19700080037000e0c780034
:101c10000000eb00c0b79f00e0b79f000080eb0022
:101c2000d0b79f000002eb00840178001200200072
:101c3000e10721000a00780047fe07006fff370028
:101c4000180ce800090078004f0778004f06be0026
:101c50004f05be004f04be006f01b100000006003a
:101c60008200fa00889fbe008a1f78000005780075
:101c700082047800c13f9f000004eb001000370091
:101c80000902780088017800a2f72f000f014100b7
:101c900081f72f008f8040000a00780084fe070043
:101ca00008004000880f500004003d00b0042000f0
:101cb000b08488000084eb00040037000004780042
:101cc0004f3897001004e000edff3a00080078005c
:101cd0004f0578004f04be000080fa0000000600a7
:101ce000889fbe000004be000000eb000800e0007a
:101cf00018003200180090000058a3000d003200b8
:101d0000d800900068009000808f500009003600d5
:101d1000b80990000001eb0082007800080078000c
:101d200003000100d80090000080eb000100e000fb
:101d3000080032000000eb00200c980060049800be
:101d4000500498000900e0000200320018007800fa
:101d50000afb07004f04be0000000600889fbe007b
:101d60000004be000000eb000800e0002500320087
:101d7000180090000058a30011003200d800900015
:101d800068009000808f500009003600b80990006c
:101d90000001eb00820078000800780003000100d9
:101da000d80090000080eb000100e0001500320038
:101db0000000eb00200c980060049800500498008c
:101dc000780a900008109000800f52000600310041
:101dd0000002520011002000cfa2de00612bb900ea
:101de00018007800390007000000eb00001498008c
:101df000700c98000900e000020032001800780022
:101e0000defa07004f04be000000060080007800e4
:101e10001000200002022000828f500004003200d7
:101e2000e9805000e48f5000010036000000eb0014
:101e300000000600889fbe008a1f78000005780019
:101e40000a047800984478000805e8000900fb00bf
:101e5000eeff07000000e000f9ff3a00b0c2b30057
:101e600080cf540005003200d0c2b3008000eb00e8
:101e700080cf540005003a00020037008000eb00dc
:101e800001003700110020000804e8000000eb000a
:101e900003003700ea00b900020050000003b00060
:101ea0003801fb0003fd2f0082814100e98f5100c2
:101eb000f8ff36000100e00001003a000000ea00ef
:101ec0004f0578004f04be0000000600a0fd2f0063
:101ed000f1ff2f00860007004f89de0082017800a5
:101ee000000006008001780002003700b159780038
:101ef0000201e9000200e000fcff3a0000000600d9
:101f0000889fbe008a9fbe00800478000200e00027
:101f10005b00320001407800814c780082814400ef
:101f2000f1f99f00e20f51005500360091449800ee
:101f3000a1449800e1f99f00d1f99f00e60f5100fc
:101f40004f003600b1449800c1f99f00e80f5100de
:101f50004b0036000905ea00630565000a84440069
:101f60000a055100c1ff2f00010565000080fb003c
:101f70008000eb001210200013102000cd0007009d
:101f8000008cbe000a01440060b99f0071b99f0037
:101f9000e80f55003a0036002004980031049800fc
:101fa000400498005104980020b99f0031b99f0067
:101fb00040b99f0051b99f00f80f5500300036001e
:101fc0006004980071049800000c9800110c9800af
:101fd000200c9800310c9800400c9800510c98008f
:101fe00020b19f0031b19f0040b19f0051b19f00cf
:101ff00060b19f0071b19f0000b99f0011b99f00af
:1020000064016400780141000204440002055500a7
:102010006011b8000203be000002be000403be004f
:102020006022b8000000720081807200020173001b
:102030008381730010003700009cbe000294be0034
:1020400040049800510498006204980073049800ba
:10205000000c9800110c9800220c9800330c98008a
:10206000400c9800510c9800620c9800730c98007a
:102070000a02b1000802b000ff0f5500eeff3e005b
:10208000090078004f05be004f04be0000000600a6
:1020900080007800040037003104e00002003a00bc
:1020a0000000510000000600010178000108a300b3
:1020b000f9ff3a008101780031017800f4ef2f0038
:1020c000020242000281ea000201620004082800c4
:1020d00004016100f7ff32008300780001017800fd
:1020e0003104e000fdff3a0000005100000006004e
:1020f00002002f00f3ff2f00820f5000838f580043
:10210000040036000000ea00b08488000080eb0084
:102110008080eb0000000600f1fb2f008080400073
:10212000f98f500001003e000050a00000000600a2
:10213000f9ff3700f1f92f0080804000f98f50003f
:1021400001003e00f005b20000000600f9ff370074
:102150000000060052fa0700fdff0700fcff3700f1
:10216000881f78000004780000082000808f50004d
:102170001700350010082000808f50000b0034003d
:1021800030082000808f500011003a009200780043
:1021900068805000000978003002be002003be00b5
:1021a000049cbe000694be0007003700920278002f
:1021b00064805200000978001000be00090007008a
:1021c000009cbe000294be001000200001003700f9
:1021d0000000eb004f0478000000060000c0da00a9
:1021e00000000600810378001d0007000001be000a
:1021f0006000b8000478a30013003a006220e100f8
:1022000015003e000d0039008301d1000281d3008a
:102210008180d3008301d1000281d3008180d3006b
:102220008301d1000281d3008180d3000538b00042
:10223000c42add00f300b2008381720007f0a7001a
:1022400003f0a0000000060083ff2700020020002a
:102250006110b900f9ff370003ff2700f7ff3700cf
:10226000c70ade00f107b200f50fb2000800320025
:10227000e1cf4200020032000170a00024000500fe
:10228000810f7000010032000408050044000500c1
:10229000810f700002003a00140005008502e90079
:1022a0000000400081c04800fcff3b000170a0001e
:1022b00024000500020ab900001bb9000200b800a2
:1022c000810042008100430000000600889fbe009c
:1022d0008a9fbe0030044200b0844a0030054b00a3
:1022e00090854b006000b1000898be000a90be00c7
:1022f0000440e10005c8e10006d0e10007d8e10094
:1023000002003100680040001008e8004f05be00e0
:102310004f04be0000000600889fbe008a9fbe00da
:102320003004be002005be000418540005985c006f
:1023300006185d0007985d00110020000440e100d0
:1023400005c8e10006d0e10007d8e100010039002e
:102350008000eb00108810004f05be004f04be0047
:10236000000006001200fa00889fbe008a9fbe008f
:102370008c9fbe00e0b79f00f1b79f0082bf9f0017
:1023800093bf9f000605be000404be000000eb00e2
:10239000d0b79f00c0b79f00b0b79f00a0b79f0005
:1023a00090b79f00000678005fb19700cfb097000c
:1023b000820141003fb097000200e00004003d00b0
:1023c000370007007e805700c0ff0700030037007a
:1023d000330007007e805700cfff0700dfb697006d
:1023e0000d00e0000c0035006fb29700ffb29700bf
:1023f0000fbb97009fbb970010002000010020003a
:102400006011b80000027200818272000203730042
:10241000838373001b0007000c06e8000104200002
:10242000810f5600e0ff3a000d00e00004003d007f
:102430000802be000a03be007e805700a3ff07000b
:102440005fa897000000e00005003a001fb2970067
:10245000afb297003fb39700cfb3970009000700d2
:102460006fb09700ffb097000fb997009fb9970022
:102470004f06be004f05be004f04be000080fa00ac
:10248000000006000100070000000600a4b79f003e
:10249000b5b79f00c6b79f00d7b79f0000000600e2
:1024a0004f09de0082817100b3b79f004f01de004b
:1024b0008180400082807000a1b79f008fb097009c
:1024c0004f09de00000040000200700090b79f003e
:1024d0007fa897004f01de0081804000828070005d
:1024e00081b79f000d0007004f3ade00000040005a
:1024f00004007000f0af9f000800070004024200d3
:1025000085824a0006034b0087834b00dfff0700ec
:102510000802be000a03be00000006002fb29700aa
:10252000bfb297004fb39700dfb3970000000600db
:10253000881f780018002000881f780089ff070096
:102540008f87e9004f04780000000600801feb0031
:1025500084ff07008f87e90000000600889fbe0007
:102560008a9fbe00e00f5000e08f5800e00f590036
:10257000e08f59000c003d006044b8006055b80081
:102580000000540081805c0002015d0083815d00d9
:10259000180020001500070008003d001800070083
:1025a0000004eb00050037000004eb000f000700fb
:1025b00002003d001200070018002000dcff0700a9
:1025c0000800e000060032006022b8006033b80066
:1025d0000000520081805a0002015b0083815b0091
:1025e0004f05be004f04be0000000600e00f520081
:1025f000e08f5a00e00f5b00e08f5b0000000600f8
:102600006044b8006055b8000402540085825c0044
:1026100006035d0087835d0000000600889fbe0002
:102620008a9fbe008c1f7800e00f5000e08f58009a
:10263000e00f5900e08f59000d003d006044b800e4
:102640006055b8000000540081805c0002015d000c
:1026500083815d001c0020000820e10009a8e10042
:102660000ab0e1000bb8e1000d003d0008003700a2
:102670000006eb00e00f5200e08f5a00e00f5b0015
:10268000e08f5b0006003d006044b8006055b80074
:102690000402540085825c0006035d0087835d00b0
:1026a000aaff07000c00e000060032006022b8001c
:1026b0006033b8000000520081805a0002015b00c4
:1026c00083815b004f0678004f05be004f04be00bb
:0426d0000000060000
:020000040000fa
:1026d400d8130000f81300000e1400002c1400009e
:1026e40042140000561400007614000098140000f0
:1026f400a01400000000000000000000a814000066
:10270400ce140000e6140000581500006e150000f9
:102714008a150000ec150000fe1400000000000003
:1027240000000000000000000000000000000000a5
:10273400000000006e170000a217000064160000dd
:102744005c1600006c160000821600008a16000059
:102754009e160000c4160000dc160000f0160000ef
:10276400f816000000170000161700001e170000de
:102774003217000050170000e4190000fa19000095
:10278400121a00001a1a0000461a0000821a0000e9
:102794006c1a0000981a0000ae1a000081010000b3
:0c27a400256c0000640a0000000000002a
:020000040000fa
:1027b0000000fa003822ef0000802000d0118800cd
:1027c00000082000e0118800e0022000f0118800dd
:1027d00030022000001288004222ef0039e2a800f7
:1027e00038a2a8003882a8000080fa000000060085
:1027f0000000fa003822ef003a22ef000008200023
:10280000e0118800e0022000f01188004022ef0073
:102810004222ef000080fa00000006000000fa00eb
:1028200000000000f0118000620060000000e00085
:10283000fcff3a00e0118000620060000000e00050
:10284000010032003c22a9002012800000407800e4
:102850000080fa00000006000200fa00004f780035
:1028600000000000f0118000700060000000e00037
:10287000fcff3a001e80fb00401288000080fa0036
:10288000000006000000fa00f01180006200600005
:1028900000f0a7000000ea000000e9004f00de00a1
:1028a000004078000080fa00000006000000fa00f6
:1028b000f0118000700060000000e00007003a00a6
:1028c000c111800000022000008060000000e000d4
:1028d0000200320010002000010037000000eb0071
:1028e000004078000080fa00000006000000fa00b6
:1028f000e111800000082000008060000000e0007e
:1029000007003200f111800000022000008060000a
:102910000000e0000200320010002000010037003b
:102920000000eb00004078000080fa000000060084
:102930000000fa0038a2a8000080fa00000006009b
:102940000000fa0038a2a9000080fa00000006008a
:102950000200fa00004f78005cc2a9001e80fb0054
:10296000610060004200dd00e11280000120a10052
:1029700001007000e01288001e80fb006100600012
:102980004600dd00c11180000160a100010070005f
:10299000c01188000080fa00000006000000fa0064
:1029a000c011800066800a00000000000080fb006b
:1029b00000f0a7000000ea000000ea004f00de007f
:1029c000004078000080fa00000006000000fa00d5
:1029d000e012800022800a00000000000080fb005e
:1029e00000f0a7000000ea000000ea004f00de004f
:1029f000004078000080fa00000006000000fa00a5
:102a00001430ef00e0118000680060000000e0007a
:102a100003003200a08080000000a000a080880099
:102a2000e111800000042000008060000000e00050
:102a300003003200a08080000010a000a080880069
:102a4000e0118000620060000000e000040032003d
:102a5000a08080000020a000a08088003c22a90067
:102a6000e0118000610060000000e000040032001e
:102a7000a08080000030a000a08088003c02a90057
:102a8000e111800000022000008060000000e000f2
:102a900004003200a08080000040a000a0808800d8
:102aa0003ca2a900a08080000080fa00000006007f
:102ab0000400fa00008fbe001e007800001288009b
:102ac0001e00be004008de00000078006f006000bd
:102ad000101288000080fa00000006000400fa00ce
:102ae000101280008000eb00008fbe001e00be00b0
:102af000c001dd0002002000001280008000eb0019
:102b0000001f7100019771001e00be000080fa00d6
:102b1000000006000800fa0020079800310798001e
:102b20002e019000be019000300020000100200026
:102b3000800f5100818f59000e0036002e0090004a
:102b4000be009000e00f5000e08f580009003200f6
:102b50003b62a80038e2a9002e019000be0190005f
:102b600000902000d1032000abf70700008fbe00cb
:102b7000100037003b62a90038e2a8002e01900047
:102b8000be0190004218dd00ce10de008100700012
:102b90004210dd000001be0000902000d1032000a3
:102ba0009df707000081eb008081eb00021f4000d1
:102bb000039748001e007800001288001e00be0027
:102bc0004008de00000078006f00600010128800ee
:102bd0000080fa00000006000800fa00bfff0700ae
:102be0002007980031079800d11180000080200054
:102bf000008060000000e0000c0032002e00900019
:102c0000be009000e00f5000e08f58000700320037
:102c10002e019000be01900000902000d103200002
:102c20007df70700008fbe0020003700c111800033
:102c300000082000008060000000e0000e0032006c
:102c40002e009000be00900061014000e08148002d
:102c50004218dd00ce10de00810070004210dd0061
:102c60000001be0000902000d10320006af7070099
:102c7000008fbe000d0037002e009000be009000b7
:102c800061014000e08148004418dd00cc10de0006
:102c9000810070004410dd000001be0000902000a3
:102ca000d10320005cf70700008fbe001e00be00ad
:102cb0000080fa00000006000000fa0041e1a900cf
:102cc0000080fa00000006000000fa0041e1a800c0
:102cd0000080fa00000006000000fa00600a800090
:102ce0006101b800900a80008000eb00c000dd00a8
:102cf0000000200000007100818071000080fa0057
:102d0000000006000000fa00600a80000080fa005f
:102d1000000006000400fa00008fbe001e00be0086
:102d20004008de0000007800900a88001e0078004d
:102d3000600a88000080fa00000006000800fa001f
:102d400020079800310798002e009000be009000e8
:102d50000081eb008081eb00021f400003974800d8
:102d60007021ef007221ef001e007800600b8800d8
:102d70001e00be004008de0000007800700b8800d6
:102d80000080fa00000006000000fa00200a80001f
:102d900088800a00000000000080fb0000f0a7000f
:102da0000000ea000000ea004f00de00004078006a
:102db0000080fa00000006000200fa00004f7800d0
:102dc0001e4078000004e000020032004501a80027
:102dd000010037004501a9000080fa00000006004c
:102de0000000fa0045e1a8000080fa00000006009b
:102df0000000fa0045e1a9000080fa00000006008a
:102e00000000fa00700b80008000eb00c001dd00c4
:102e100002002000600b80008000eb0000007100c9
:102e2000818071000080fa00000006000000fa00b6
:102e3000600b80000080fa00000006000400fa0029
:102e4000008fbe001e007800600b88001e00be00d0
:102e50004008de0000007800700b88000080fa0057
:102e6000000006000200fa00000f78001e00780043
:102e700000407800674060000080fb006700600051
:102e80004a00dd00020a8000f13f2e00810061004f
:102e900001007000000a88000080fa0000000600af
:102ea0000200fa00000f78001e0078000040780051
:102eb000634060000080fb00630060004800dd00ac
:102ec000020a8000f1cf2f00810061000100700034
:102ed000000a88000080fa00000006000000fa00e6
:102ee0004021ef0000002400200a88004621ef0066
:102ef0004821ef004c21ef004e21ef005221ef005e
:102f00005421ef005621ef005a21ef005c21ef0021
:102f10005e21ef006021ef006221ef006421ef00ed
:102f20006621ef006a21ef00902a2000600b8800e4
:102f30006e21ef007021ef007221ef000080fa0097
:102f4000000006000000fa004021ef004421ef00dd
:102f50004621ef004821ef004c21ef004e21ef0009
:102f60005221ef005421ef005621ef005a21ef00cb
:102f70005c21ef005e21ef006021ef006221ef0095
:102f80006421ef006621ef006a21ef006c21ef0061
:102f90006e21ef007021ef007221ef000080fa0037
:102fa000000006000400fa00100798000040eb0043
:102fb000004f78001e0090000000e00002003d007d
:102fc00010c0b300004f78001e4078000080fa0067
:102fd000000006000400fa00100798000040eb0013
:102fe000004f78009e0090000000240000806000e8
:102ff0000000e0000200320010c0b300004f780073
:103000001e4078000080fa00000006000400fa006c
:10301000100798000040eb00004f78009e009000e1
:1030200000202000008060000000e000020032006c
:1030300010c0b300004f78001e4078000080fa00f6
:10304000000006000400fa00100798000040eb00a2
:10305000004f78009e009000000820000080600073
:103060000000e0000200320010c0b300004f780002
:103070001e4078000080fa00000006000400fa00fc
:10308000100798000040eb00004f78009e00900071
:1030900000042000008060000000e0000200320018
:1030a00010c0b300004f78001e4078000080fa0086
:1030b000000006000400fa00100798000040eb0032
:1030c000004f78001e009000700060000000e000db
:1030d0000200320010c0b300004f78001e4078009c
:1030e0000080fa00000006000200fa00000f7800dd
:1030f0009e80ea00007c800000806000007c8800e8
:103100000080fa00000006000000fa00007c800049
:103110000080fa00000006000200fa00faff070033
:10312000000f78001e0078009eff07000004e000fa
:103130000200320000002800ebff07001e007800ac
:10314000a4ff07000004e000020032000000240099
:10315000e5ff07001e007800acff07000004e00058
:103160000200320000202000dfff07001e00780070
:10317000b4ff07000004e000020032000008200055
:10318000d9ff07001e007800bcff07000004e00024
:103190000200320000042000d3ff07001e00780068
:1031a000c4ff07000004e00002003200000120001c
:1031b000cdff07000080fa00000006000000fa00c2
:1031c000802fef000080fa00000006000000fa00e7
:1031d000c3e8a80000000000000000000080fa0022
:1031e000000006000000fa00c3e8a900000000008b
:1031f000000000000080fa00000006000000fa0055
:10320000f8ff0700ec010700f0ff0700e09d210038
:103210006100070025a8a8000080fa000000060051
:103220000000fa0000002800e00288000080fa0098
:10323000000006000000fa000000240000038800df
:1032400010c0b30000f0b7000080fa0000000600d4
:103250000000fa000070ef00000000004003800052
:10326000610060000000e000fcff320080002000f0
:10327000200388000080fa00000006000200fa0027
:103280000040eb00004f78004003800061006000c8
:10329000004078000004e0000200320010c0b300db
:1032a000004f78001e4078000080fa000000060001
:1032b0000000fa0000d0bf000080fa000000060005
:1032c0000400fa006000b800008fbe00b003800068
:1032d0008000eb00c000dd0000002000008fbe0079
:1032e000a00380008000eb003e017000ae81700002
:1032f0000200be000080fa00000006000400fa0090
:103300006000b800008fbe00d00380008000eb009a
:10331000c000dd0000002000008fbe00c003800060
:103320008000eb003e017000ae8170000200be0024
:103330000080fa00000006000200fa000000eb0026
:10334000000f780041038000100e2000008f600005
:103350001e0078000080fa00000006000400fa0059
:103360006000b800008fbe00700380008000eb009a
:10337000c000dd0000002000008fbe006003800060
:103380008000eb003e017000ae8170000200be00c4
:103390000080fa00000006000200fa00000f78002a
:1033a0001e0078000000e000020032009e0078005d
:1033b000318088000080fa00000006000000fa005a
:1033c0000080fa00000006000000fa00bc22ef00b6
:1033d000ae22ef00b022ef00b422ef00c422ef00d3
:1033e000c622ef0010182000601588000080fa0047
:1033f000000006000000fa000a000700bc22ef00ef
:10340000ac22ef00ae22ef00b022ef0080022000dd
:10341000a0158800c422ef00c622ef000080fa0049
:10342000000006000000fa00ade2a9000080fa00ea
:10343000000006000400fa00204798000040eb005e
:10344000004f7800611580000000280000806000b7
:103450000000e0000a003a002e4090000080fb00cf
:1034600080004000003d29000080400010007800ee
:1034700060158800ade2a80010c0b300004f7800ce
:103480001e4078000080fa00000006000200fa00ea
:10349000004f780000000000a0158000620060006e
:1034a0000000e000fcff3a001e80fb00c015880011
:1034b00000000000a11580000002200000806000d4
:1034c0000000e000fbff3a00c015800000407800db
:1034d0000080fa00000006000200fa00004f7800a9
:1034e00000000000a0158000620060000000e00005
:1034f000fcff3a001e80fb00c01588000080fa0027
:10350000000006000000fa0000000000a115800085
:1035100000022000008060000000e000fbff3a0095
:10352000c0158000004078000080fa00000006000e
:103530000000fa00a1158000000220000080600059
:1035400000f0a7000000ea000000e9004f00de00e4
:10355000004078000080fa00000006000000fa0039
:10356000a01580006200600000f0a7000000ea00e3
:103570000000e9004f00de00004078000080fa0003
:10358000000006000000fa00062eef00222eef00d9
:1035900000402000f07188005a2eef00f00120005a
:1035a00010708800f07f2f00f0708800f0bf2300bb
:1035b000d071880020102200b07288000a2eef001f
:1035c000262eef00422eef005e2eef000c2eef00b5
:1035d000282eef00442eef00602eef00082eef00a3
:1035e000242eef00402eef005c2eef00f0012000b3
:1035f00000708800f0092000e0708800f00c2000c6
:10360000c071880000002200a07288000000eb005a
:1036100051052000b1468800a10a2000b14688006b
:103620000068880080c2b30020edb70090c2b300ec
:1036300021edb700d0c2b3002dedb700e0c2b3005a
:103640002cedb700a0c2b3002eedb700b0c3b3009d
:1036500028edb700516c8000f00f2c0080806000d6
:103660000050200001007000506c8800d16c800078
:1036700000fc2f00008060000000a000d06c8800db
:103680000080200051052000b1468800a10a2000da
:10369000b1468800006888000080fa00000006003b
:1036a0000000fa00217c800000002700808060007c
:1036b00000002100808f500006003200217c800035
:1036c000000027008080600000002300808f5000f1
:1036d00016003a0085cfbf008080fb0080ff2f00de
:1036e0000081600080072000a109200053f820001d
:1036f00080497800814978008249780012002000d2
:10370000600420007105200043f820008049780003
:10371000814978008249780000000000207c800008
:10372000610060000000e000fcff3a001000230090
:10373000307c880060092000407c88008c2fef00de
:1037400010042000507c8800b82fef00ba2fef0043
:10375000be2fef00002def00a02fef00a42fef00f1
:10376000a62fef00a82fef00aa2fef00ae2fef003b
:10377000b02fef00b22fef000001eb008007200018
:10378000a109200053f82000804978008149780081
:10379000824978000001eb006004200071052000e0
:1037a00043f82000804978008149780082497800f8
:0837b0000080fa000000060091
:020000040000fa
:1037b8000e100000040000008000000058100000f7
:1037c800200000008000000012100000020000002d
:1037d80082000000ffff0000001000000800000049
:1037e80080000000141000000200000080000000ab
:1037f80008100000060000008000000016100000fd
:1038080042000000820000001a101c00101c10006a
:10381800010003000000000000000000000000009c
:103828000000ae000e00000000000000005a090071
:103838004a05000000000000000000000000000031
:103848000000000000000000000000000000000070
:103858000000000000000000000000000000000060
:10386800781000001e00000082000000286e690029
:103878006c29000025006800076c09004c836a0069
:103888009074a0007ac000008068880000846c00f2
:1038980082008100961000000200000080000000f5
:0438a800000000001c
:020000040000fa
:1038ac000000fa0041e1a8000080fa0000000600c8
:1038bc000000fa00600a80006101b800900a8000e4
:1038cc008000eb00c000dd00000020000000710053
:1038dc00818071000080fa00000006000000fa00f0
:1038ec004700070080afa900edff07000040eb0088
:1038fc00cdfe0700eeff0700508088006180880035
:10390c00d0728000aa800a00000000000004a2000f
:10391c00614060000080fb00610060004a00dd0037
:10392c00d172800001a0a10001007000d07288004b
:10393c00a0cab300e5fe070050c5b300e3fe0700c4
:10394c000ad0bf00e1fe07000bd0bf00dffe07006e
:10395c000cd0bf00ddfe07000dd0bf00dbfe070062
:10396c005080800061808000809fbe00203d290037
:10397c00801f780035f40700e6875700ddff37001d
:10398c000000fe00ae19020000000000821f78004b
:10399c00128080000000110002002000810019003c
:1039ac004f017800000006000000fe00801f780028
:1039bc00811f7800821f780060038000801f7800d0
:1039cc00ae190200000000004f0178000201500007
:1039dc000201e900128088004f017800cf007800c6
:1039ec004f007800000006000000fa00c3e8a800b1
:1039fc0000000000000000000080fa00000006003b
:103a0c000000fa0023ff0700dbfe0700f8fd0700ab
:103a1c002ffd070069fe070062fb0700f2ff07009d
:103a2c00020007000080fa00000006000000fa0007
:103a3c00b1428000f0f82f00008060000040a00030
:103a4c00b04288000080fa00000006000000fa0076
:103a5c00b1428000f0f82f00008060000060a000f0
:103a6c00b04288000080fa00000006000200fa0054
:103a7c00000f78009e007800918088000000fe0006
:103a8c000080fa00000006000000fa00800521000a
:103a9c008007780000072100000188000080fa00f0
:103aac0000000600809fbe00ec80570031007800bb
:103abc00708088001100780010f0b7004f00be0035
:043acc0000000600f0
:020000040000fa
:020000040001f9
:045e0000ffffff00a1
:020000040000fa
:020000040001f9
:045e2000ffffff0081
:020000040000fa
:020000040001f9
:045e300078ffff00f8
:020000040000fa
:020000040001f9
:045e3800bbffff00ad
:020000040000fa
:020000040001f9
:045e4000ff7fff00e1
:020000040000fa
:020000040001f9
:045e4800ffffff0059
:020000040000fa
:020000040001f9
:045e5000dfffff0071
:020000040000fa
:020000040001f9
:045e58000000ff0047
:020000040000fa
:020000040001f9
:045e60000000ff003f
:020000040000fa
:020000040001f9
:045e68000000ff0037
:020000040000fa
:020000040001f9
:045e70000000ff002f
:020000040000fa
:020000040001f9
:045e7800ffffff0029
:020000040000fa
:020000040001f9
:045e8000fffcff0024
:020000040000fa
:020000040001f9
:045e8800ffffff0019
:00000001FF
